:02000000ff00ff
:080002004c6174746963650030
:17000a00694345637562653220323032302e31322e32373934330071
:16002100506172743a2069434534304858314b2d545131343400fc
:1b003700446174653a204e6f7620323620323032332032303a34353a3138006c
:0200520000ffad
:040054007eaa997e69
:02005800510055
:02005a0001059e
:03005c00920020ef
:03005f0062014bf0
:0300620072009099
:0300650082000016
:02006800110085
:02006a00010192
:20006c00000000000000000000000000000000000000000000000000000000000000000074
:09008c000000000000000000006b
:2000950000000000000000000000000000000000000000000000000000000000000000004b
:0a00b5000000000000000000000041
:2000bf0000000000000000000000000000000000000000000004000000000000000000001d
:0900df0000000000000000000018
:2000e8000000000000000000000000000000000000000000000000000000000000000000f8
:0a01080000000000000000000000ed
:200112000000000000000000000000000000000000000000000000000000000000000000cd
:09013200000000000000000000c4
:20013b000000000000000000000000000000000000000000000000000000000000000000a4
:0a015b00000000000000000000009a
:200165000000000000040000000000001000000000000040000000000000000000000040e6
:0901850000000000000100000070
:20018e0000000000000000000000000000000000000000000000000004000000000000004d
:0a01ae000000000000000000000047
:2001b80000000000000400000000000010000000000000400000000020000000000000c0f3
:0901d8000000000000010000001d
:2001e1000000000000000000000000000000000000000000000000000000000000000000fe
:0a02010000000000000000000000f3
:20020b000000000000000000000000000000000000000000000000000000000000000000d3
:09022b00c000000000000000000a
:200234000000000000000000000000000000000000000000000000000000000002000000a8
:0a02540000000000000000000000a0
:20025e0000000000000000000000000000000000000000000000000000000000000200007e
:09027e0000000000000000000077
:200287000000000000000000000000000000000000000000000040000000000001003400e2
:0a02a700000000000000000000004d
:2002b10000000000000000000000000000000000000000000000000010000000000000001d
:0902d10000000000000000000024
:2002da000000000000000000000000000000000000000000000000001000000002000000f2
:0a02fa0000000000000000000000fa
:2003040000000000000723c3000000007405a80000000000000000000000000000000000cb
:09032400000000000000000000d0
:20032d000000000000000003c0800000204da500004000000000000000000000000000001b
:0a034d0000000000000000000000a6
:2003570000000800000723c3000003627415a80000000000000000000000000000000000fb
:090377000000000000000000007d
:200380000000020000000003c00000146849a500000000000000000000000000000000002e
:0a03a0000000000000000000000053
:2003aa0000000000019523c3000002663405a800000000000000000000000000000000006e
:0903ca000000000000000000002a
:2003d3000000000000080803c00000042669a50000000000000000000000000000000000ff
:0a03f3000000000000000000000000
:2003fd0000020000181523c300000066d5b0f80000000000000000000000000000000000e8
:09041d00000000000000000000d6
:200426000000000000080803c0000024203a0f000000000000000000000000000000000056
:0a04460000000000000000000000ac
:20045000000000000007a3c300000002de05a8000000000000000000000000000000000092
:0904700000000000000000000083
:200479000000200000000003c000003470cfa5000000000000000000000000000000000068
:0a0499000000000000000000000059
:2004a300000000000005a3c3000002e656f0f80000000000000000000000000000000000a8
:0904c30000000000000000000030
:2004cc000000000000000003c000000c300c0f0000000000000000000000000000000000f6
:0a04ec000000000000000000000006
:2004f600000000009805a3c30000014716f0f800000000000000000000000000000000009d
:09051600000000000000000000dc
:20051f000000000001000803c00000022c3c0f000000000000000000000000000000000077
:0a053f0000000000000000000000b2
:20054900000000008187a3c3000002000e15a8000000000000000000000000000000000057
:0905690000000000000000000089
:200572000000000001000803c000000402eda5000000000000000000000000000000000005
:0a059200000000000000000000005f
:20059c0000000000000723c30000000015b0f8000000000000000000000000000000010094
:0905bc0000000000000000000036
:2005c5000000000000000003c1000000200a0f040000000000000000000000000000008095
:0a05e500000000000000000000000c
:2005ef0000000800000723c3000001607c05a80000000000000000000000000080000102ea
:09060f003c104000000000000056
:200618000000020000000003c0000000284fa500000000000000000000000000200000f0d1
:0a06380043c00000000000000000b5
:2006420000000000019523c3000002067405a8000000000000000000000000030000008070
:0906620029500000000000000016
:20066b000000000000080803c00000042269a500000000000000000000000000100000094f
:0a068b0001680000000000000000fc
:2006950000020000181523c30000024695a0f80000000000000000000000000000000000bb
:0906b5000000000000000000003c
:2006be000000000000080803c0000016003d0f0000000000000000000000000000000000e7
:0a06de000000000000000000000012
:2006e800000000000007a3c3000000021e15a80000000000000000000000000000000000a8
:09070800000000000000000000e8
:200711000000200000000003c000003440cea500000000000000000000000000040000c03a
:0a07310000000000000000000000be
:20073b00000000000005a3c300000000008f00800000000000000000000000000000000024
:09075b0000000000000000000095
:200764000000000000000003c00000000000f00000000000000000000000000000000000c2
:0a078400000000000000000000006b
:20078e00000000009805a3c3000000604000000000000000000008000000000000000000a0
:0907ae0000000000000000000042
:2007b7000000000001000803c00000003400000000000000000001400000000000000000e1
:0a07d7000000000000000000000018
:2007e100000000008187a3c3000002e00000000000000000000000000000000000000000a8
:09080100000000000000000000ee
:20080a000000000001000803c00000040000000000000000000000000000000000000000fe
:0a082a0000000000000000000000c4
:20083400000000000005215500001203be88010000400000000000000610080000058b00df
:090854000000000000001af04051
:20085d000000000000000015410000346e7940000040000000000000000c0000000001a0dd
:0a087d00000000000000000f00045e
:200887000000080000000000000a0400058a020000000000002001401c996e0080081adba9
:0908a7000200020000000cf04008
:2008b0000000020000000000000040802e7e00000000000000080002000a96002000500997
:0a08d000340000800000010f00005a
:2008da0000000000800000000008100295aa0000000000000000000654896e0000050007c8
:0908fa00a8c08c0000001ef06093
:200903000000000001000000000048bc7c70f008000800000000000c202d9601000078a0db
:0a092300414c00c00000000f00006e
:20092d00000200000000000000140003a6880200000000000000000654896e002805813b27
:09094d008000000020000ef040c3
:2009560000000000000000000001803c7d798000028500000000000c202e9601010000a92c
:0a0976002c08600003c0000f000011
:200980000000000000000000000000001498000000000000000002005e896e0000059f169a
:0909a000c2000000000400000088
:2009a90000002000000000000000400002594020002000000000001c3c0c96000000d089a0
:0a09c9006000000000038000000041
:2009d3000000000000000000000a000015aa000000000000000000005e896e00000018d3fb
:0909f30009408000000000000032
:2009fc000000000000000000000040000030a02000000000000000043c0a96000000d00bf0
:0a0a1c0041684000000000000000e7
:200a260000000000000000000000020004b81100000000000000e06056996f0000059a7a2a
:090a46009a9080000628000000cf
:200a4f0000000000000000000000003c027900000000000000000014382d960000000800b9
:0a0a6f0081a86000000400000000f0
:200a790000000000000000000000000040000000000000000000026016896e0000000103aa
:090a990080400000000000000094
:200aa200000000000000000000000000380000000000000000000004002f960000000089aa
:0a0ac2007008000003c000000000ef
:200acc000000000000000000000003e040000000004000000000014014896e0000201b56ca
:090aec00280000000001feff00db
:200af50000000080000000000000001e38000000000000000002000030099614080100a07d
:0a0b1500828000200142a68f7000cc
:200b1f000000000000000000000000000418100000000000002000001c896c0080050012c2
:090b3f00c20000000000000000eb
:200b4800000000000000000000000000016b00000000000000080000280f96102000000913
:0a0b6800a8000000000000000000db
:200b72000000000000000000000010e00da7e020000000000000024616996f000055985616
:090b920028000000000000000032
:200b9b0000000000000000000000000e0160fd000002000000000004000f9600000200f031
:0a0bbb00828000000000000000002e
:200bc5000002000000000000000000005dc7f2200000000000000062d4996e00008d00020c
:090be50083d44000000000000070
:200bee0000000000000000000000003c3850bd00000000000000000e242c9610000058000a
:0a0c0e00403c000000000000000060
:200c1800000000000000000000000003c000000000000000000000e03e9d4600000000f800
:090c38002940400000000000000a
:200c410000002000000000000000000020000000000000000000000002ca1700000000056b
:0a0c61000000000000000000000089
:200c6b000000000000000000000000e36087f00000000000000001606fafa0000000000090
:090c8b00604000000000000000c0
:200c94000000000000000000000000027f5abf0000000000000000003f60fa000000000d00
:0a0cb400210800000000000000000d
:200cbe000000000000000000000000600fcdb020000000000000006744c1c200000000f8e4
:090cde0029404000000000000064
:200ce7000000000000000000000008000060c7000002000000000000294f3c000000000503
:0a0d070000000000000000000000e2
:200d110000000000000000000000000004c80120000000000000020687a5a0000000000001
:090d310060400000000000000019
:200d3a00000000000000000000000000005040000005000000000004017005200000500d0d
:0a0d5a002108000001c38000000022
:200d64000000000000000000000000000000000000000000000000000000000000080a72eb
:090d8400dfc000000004000000c3
:200d8d000000008000000000000000000000000000400000000000000000000008009005e9
:0a0dad00ebfc0020000240000000f3
:200db7000000000000000000000000000000000000000000000001403dda500000050a77ee
:090dd700080000000060000000ab
:200de00000000000000000000000000000000000000000000000000203582400000009b9b0
:0a0e0000b0000000034400000000f1
:200e0a0000000000000000000000000000000000000000000000000000000000000d0a179a
:090e2a003e8000001400df080006
:200e330000000000000000000000000000000000000000000000002400000000000019b0b2
:0a0e530083e8000003602dc00000da
:200e5d0000020000000000000000000000000000000000000000000040000000000500d658
:090e7d004280000016006a8002a8
:200e8600000000000000000000000000000000000000000000000000200000000000d80153
:0a0ea600e834000000001400000012
:200eb0000000000000000000000000000000000000000000000000000000000000078b1a76
:090ed000968080001c606c000398
:200ed90000002000000000000000000000000000000000000000000028000000000000872a
:0a0ef900820000000006e70200007e
:200f03000000000000000000000000000000000000000000000000000000000000010013ba
:090f23003d40c00000001ac002ac
:200f2c00000000000000000000000000000000000000000000000000280000000000580b1a
:0a0f4c0043f401000340000c000014
:200f5600000000000000000000000000000000000000000000000366b4e5a00000011c7745
:090f7600bf008000000000000033
:200f7f0000000080000000000000000000000000000000000000001403cf4000000008a004
:0a0f9f0083f00000000000000000d5
:200fa900000000000000000000000000000000000000000000000002bcc810200009808762
:090fc900a8000000000000000077
:200fd2000000000000000000000000000000000000000000000000000050a50000005007b3
:0a0ff200014000000002c0000000f2
:200ffc000000000000000000000000000000000000000000000000000000000000058170df
:09101c0040200000006cc908002e
:2010250000000000000000000000000000000000000000000000000000000000000000802b
:0a104500a4000000000225b0000026
:20104f0000000800000000000000000000000000000000000000006026af000080018a72c7
:09106f0025b0020016014f080033
:20107800000002000000000000000000000000000030000000000000286ca000200008a02a
:0a1098002258408001401d80000036
:2010a200000000000000000000000000000000000000000000000060000000000000183a7c
:0910c20025b000001602ee0f40fb
:2010cb00000000000000000000000000000000000000000000000002000000000000000003
:0a10eb00a65804000000050aa10049
:2010f500000200008000000000000000000000000000000000000000000000000009985266
:0911150065b000000069cca000e7
:20111e00000000000100000000000000000000000000000000000000280000000000500038
:0a113e00a258040000000f0000009a
:20114800000000000007ea590000000000000000000000000000016007d810000001807af2
:0911680065b040001403fe0a000a
:2011710000002000000008258000000000000000000000000000000029495a0000000800bd
:0a1191003a5800000022ed000000b3
:20119b000000000000000000000000000000000020000000000001623cca00000000195a38
:0911bb0065b040000604000000cc
:2011c40000000000000000000000000000000000038000000000000002f000000000018015
:0a11e4002a5800000023400000001c
:2011ee00000000000000783d0000000000000000000000000000000297ea50200001813285
:09120e0065b80000202c0000006e
:201217000000000000000403c000000000000000000000000000001401601800400000a083
:0a1237003658000002c60000000057
:2012410000003000001000000000000000000000004000000000020026af0000000f005acd
:0912610065b80000000260a50060
:20126a00000002000008000000000000000000000038000000000014006ea00000001000f0
:0a128a00a65800000342cc0000004b
:201294000000000000058402000000000000000000000000000000000000000000038052da
:0912b40065b2100000000000000a
:2012bd0000000000000002400000000000000000004000000000000000000000000008e0a7
:0a12dd003e58500000000000000021
:2012e70000000800000723c3000000000000000000000000000000000000000080001872e8
:0913070065b200000000000000c6
:2013100000000200000a0003c00000000000000000000000000000000000000020000100cd
:0a13300026584000000000000000f5
:20133a0000000000019523c300000000000000000000000000000000000000000008187285
:09135a0065b0100000380000002d
:201363000000000000080803c0000000000000000000000000000000000000000000100087
:0a138300ae58040001c00000000095
:20138d0000020000181523c30000000000000000000000000000000000000000000b985236
:0913ad0065b00000000000000022
:2013b6000000000005080803c010000000000000000000000000000000000000000010001f
:0a13d600be584000000000000000b7
:2013e000000000000007a3c300000000000000000000000000000000000000000000005a26
:0914000065b000000000000000ce
:201409000000200000000003c01000000000000000000000000000000000000000000000d0
:0a1429002a584200000000000000f5
:20143300000000000005a3c300000000000000000010000000000000000000000000017aa3
:0914530025b010000000000000ab
:20145c000000000000000003c0100000000000000282000000000000000000000000008099
:0a147c0022580300000000000000e9
:20148600000000001805a3c30000000000000000000000000000000000000000000181f24f
:0914a60035104000000140a500d2
:2014af000000000000000803c0100000000000000000000000000000000000000000108ba7
:0a14cf0024ac02000000340000000d
:2014d900000030008187a3c3000a140000000000004000000000000000000000000199025b
:0914f900280000000000000000c2
:201502000000020001000803c010408000000000000000000000000000000000000001a783
:0a152200414000000000000000003e
:20152c0000000000000723c3000001668000000000000000000000000000000000000000cb
:09154c0000000000000000000096
:201555000000000000000003c10000000000000000000000000000000000000000000000b2
:0a157500000000000000000000006c
:20157f0000000800000723c300000200578a00000000000000000000000000000000000074
:09159f0000000000000000000043
:2015a8000000020000000003c00000142830a0000000000000000000000000000000000052
:0a15c8000000000000000000000019
:2015d20030000000019523c30000020040000000000000000000000000000000000000000b
:0915f200000000000000000000f0
:2015fb000300000000080803c00000142800000000000000000000000000000000000000be
:0a161b0000000000000000000000c5
:2016250000030000181523c3000001668000000000000000000000000000000000000000a8
:091645000000000000000000009c
:20164e000000000000080803c0100000000000000000000000000000000000000000000099
:0a166e000000000000000000000072
:20167800000000000007a3c3000000000000000000000000000000000000000000000000e5
:0916980000000000000000000049
:2016a1000000000000000003c0100000000000000000000000000000000000000000000056
:0a16c100000000000000000000001f
:2016cb00000000000005a3c3000000005fc1800000000000000000000000000000000000f4
:0916eb00000000000000000000f6
:2016f4000000000000000003c0100000257804000000000000000000000000000000000062
:0a17140000000000000000000000cb
:20171e00000000009805a3c30000006024aa5020000000000000000000000000000000000a
:09173e00000000000000000000a2
:201747000800000001000803c01000340070100000000000000000000000000000000000ea
:0a1767000000000000000000000078
:20177100000430008187a3c38000000616ea022000400000000000000000000000000000ce
:091791000000000000000000004f
:20179a001003020001000803c000000041c04000000000000000000000000000000000000d
:0a17ba000000000000000000000025
:0217c400000023
:0217c60011010f
:0217c80001011d
:2017ca000000000000000000000000000000000000000000000000000000000000000000ff
:0917ea00000000000000000000f6
:2017f3000000000000000000000000000000000000000000000000000000000000000000d6
:0a18130000000000000000000000cb
:20181d000000000000000000000000000000000000000000000000000000000000000000ab
:09183d00000000000000000000a2
:20184600000000000000000000000000000000000000000000000000000000000000000082
:0a1866000000000000000000000078
:20187000000000000000000000000000000000000000000000000000000000000000000058
:091890000000000000000000004f
:2018990000000000000000000000000000000000000000000000000000000000000000002f
:0a18b9000000000000000000000025
:2018c300000000000004000000000000100000000000004000000000100000000000004061
:0918e300000000000001000000fb
:2018ec000000000000000000000000000000000000000000000000000000000000000000dc
:0a190c0000000000000000000000d1
:2019160000000000000400000000000010000000000000400000000010000000000000400d
:09193600000000000001000000a7
:20193f00000000000000000000000000000000000000000000000000000000000000000088
:0a195f00000000000000000000007e
:2019690000000000000000000000000000000000000000000000000000000000000000005e
:0919890000000000000000000055
:20199200000000000000000000000000000000000000000000000000000000000000000035
:0a19b200000000000000000000002b
:2019bc0000000000000000000000000000000000000000000000000000000000000000000b
:0919dc0000000000000000000002
:2019e5000000000000000000000000000000000000000000000000000000000000000000e2
:0a1a050000000000000000000000d7
:201a0f000000000000000000000000000000000000000000000000000000000000000000b7
:091a2f00000000000000000000ae
:201a380000000000000000000000000000000000000000000000000000000000000000008e
:0a1a58000000000000000000000084
:201a6200000000000000000000000000000000000000000000000000000000000000000064
:091a82000000000000000000005b
:201a8b0000000000000000000000000000000000000000000000000000000000000000003b
:0a1aab000000000000000000000031
:201ab500000000000000000000000000000000000000000000000000000000000000000011
:091ad50000000000000000000008
:201ade000000000000000000000000000000000000000000000000000000000000000000e8
:0a1afe0000000000000000000000de
:201b08000000000000000000000000000000000000000000000000000000000000000000bd
:091b2800000000000000000000b4
:201b3100000000000000000000000000000000000000000000000000000000000000000094
:0a1b5100000000000000000000008a
:201b5b00000200000000000000000000000000000000000000000000000000000000000068
:091b7b0000000000000000000061
:201b8400000000000000000000000000000000000000000000000000000000000000000041
:0a1ba4000000000000000000000037
:201bae00000000000000000000000000000000000000000000000000000000000000000017
:091bce000000000000000000000e
:201bd7000000200000000000000000000000000000000000000000000000000000000000ce
:0a1bf70000000000000000000000e4
:201c01000000000000000000000000000000000000000000000000000000000000000000c3
:091c2100000000000000000000ba
:201c2a0000000000000000000000000000000000000000000000000000000000000000009a
:0a1c4a000000000000000000000090
:201c5400000000000000000000000000000000000000000000000000000000000000000070
:091c740000000000000000000067
:201c7d00000000000000000000000000000000000000000000000000000000000000000047
:0a1c9d00000000000000000000003d
:201ca70000000000000000000000000000000000000000000000000000000000000000001d
:091cc70000000000000000000014
:201cd0000000000000000000000000000000000000000000000000000000000000000000f4
:0a1cf00000000000000000000000ea
:201cfa000000000000000000000000000000000000000000000000000000000000000000ca
:091d1a00000000000000000000c0
:201d23000000000000000000000000000000000000000000000000000000000000000000a0
:0a1d43000000000000000000000096
:201d4d00000000000000000000000000000000000000000000000000000000000000000076
:091d6d000000000000000000006d
:201d760000000000000000000000000000000000000000000000000000000000000000004d
:0a1d96000000000000000000000043
:201da000000000000000000000000000000000000000000000000000000000000000000023
:091dc0000000000000000000001a
:201dc9000000000000000000000000000000000000000000000000000000000000000000fa
:0a1de90000000000000000000000f0
:201df3000002000000000000000000000000000000000000000000000000000000000000ce
:091e1300000000000000000000c6
:201e1c000000000000000000000000000000000000000000000000000000000000000000a6
:0a1e3c00000000000000000000009c
:201e460000000000000000000000000000000000000000000000000000000000000000007c
:091e660000000000000000000073
:201e6f00000020000000000000000000000000000000000000000000000000000000000033
:0a1e8f000000000000000000000049
:201e9900000000000000000000000000000000000000000000000000000000000000000029
:091eb90000000000000000000020
:201ec200000000000000000000000000000000000000000000000000000000000000000000
:0a1ee20000000000000000000000f6
:201eec000000000000000000000000000000000000000000000000000000000000000000d6
:091f0c00000000000000000000cc
:201f15000000000000000000000000000000000000000000000000000000000000000000ac
:0a1f350000000000000000000000a2
:201f3f0000000000000000000000000000000000040000000000000000000000000000007e
:091f5f0000000000000000000079
:201f6800000000000000000000000000000000000000000000000000000000000000000059
:0a1f8800000000000000000000004f
:201f920000000000000000000000000000000000000000000000000000000000000000002f
:091fb20000000000000000000026
:201fbb00000000000000000000000000000000000000000000000000000000000000000006
:0a1fdb0000000000000000000000fc
:201fe5000000000000000000000000000000000000000000000000000000000000000000dc
:09200500000000000000000000d2
:20200e000000000000000000000000000000000000000000000000000000000000000000b2
:0a202e0000000000000000000000a8
:20203800000000000000000000000000000000000000000000000000000000000000000088
:092058000000000000000000007f
:2020610000000000000000000000000000000000000000000000000000000000000000005f
:0a2081000000000000000000000055
:20208b00000200000000000000000000000000000000000000000000000000000000000033
:0920ab000000000000000000002c
:2020b40000000000000000000000000000000000000000000000000000000000000000000c
:0a20d4000000000000000000000002
:2020de000000000000000000000000000000000000000000000000000000000000000000e2
:0920fe00000000000000000000d9
:20210700000020000000000000000000000000000000000000000000000000000000000098
:0a21270000000000000000000000ae
:2021310000000000000000000000000000000000000000000000000000000000000000008e
:0921510000000000000000000085
:20215a00000000000000000000000000000000000000000000000000000000000000000065
:0a217a00000000000000000000005b
:2021840000000000000000000000000000000000000000000000000000000000000000003b
:0921a40000000000000000000032
:2021ad00000000000000000000000000000000000000000000000000000000000000000012
:0a21cd000000000000000000000008
:2021d7000000000000000000000000000000000000000000000000000000000000000000e8
:0921f700000000000000000000df
:202200000000000000000000000000000000000000000000000000000000000000000000be
:0a22200000000000000000000000b4
:20222a00000000000000000000000000000000000000000000000000000000000000000094
:09224a000000000000000000008b
:2022530000000000000000000000000000000000000000000000000000000000000000006b
:0a2273000000000000000000000061
:20227d00000000000000000000000000000000000000000000000000000000000000000041
:09229d0000000000000000000038
:2022a600000000000000000000000000000000000000000000000000000000000000000018
:0a22c600000000000000000000000e
:2022d0000000000000000000000000000000000000000000000000000000000000000000ee
:0922f000000000000000000000e5
:2022f9000000000000000000000000000000000000000000000000000000000000000000c5
:0a23190000000000000000000000ba
:20232300000200000000000000000000000000000000000000000000000000000000000098
:0923430000000000000000000091
:20234c00000000000000000000000000000000000000000000000000000000000000000071
:0a236c000000000000000000000067
:20237600000000000000000000000000000000000000000000000000000000000000000047
:092396000000000000000000003e
:20239f000000200000000000000000000000000000000000000000000000000000000000fe
:0a23bf000000000000000000000014
:2023c9000000000000000000000000000000000000000000000000000000000000000000f4
:0923e900000000000000000000eb
:2023f2000000000000000000000000000000000000000000000000000000000000000000cb
:0a24120000000000000000000000c0
:20241c000000000000000000000000000000000000000000000000000000000000000000a0
:09243c0000000000000000000097
:20244500000000000000000000000000000000000000000000000000000000000000000077
:0a246500000000000000000000006d
:20246f00000000000000000000000000000000000400000000000000000000000000000049
:09248f0000000000000000000044
:20249800000000000000000000000000000000000000000000000000000000000000000024
:0a24b800000000000000000000001a
:2024c2000000000000000000000000000000000000000000000000000000000000000000fa
:0924e200000000000000000000f1
:2024eb000000000000000000000000000000000000000000000000000000000000000000d1
:0a250b0000000000000000000000c6
:2025150000000800000000000000000000000000000000000000000000000000000000009e
:092535000000000000000000009d
:20253e0000000000000000000000000000000000000000000000000000000000000000007d
:0a255e000000000000000000000073
:20256800000000000000000000000000000000000000000000000000000000000000000053
:092588000000000000000000004a
:2025910000000000000000000000000000000000000000000000000000000000000000002a
:0a25b1000000000000000000000020
:2025bb000002000000000000000000000000000000000000000000000000000000000000fe
:0925db00000000000000000000f7
:2025e4000000000000000000000000000000000000000000000000000000000000000000d7
:0a26040000000000000000000000cc
:20260e000000000000000000000000000000000000000000000000000000000000000000ac
:09262e00000000000000000000a3
:20263700000020000000000000000000000000000000000000000000000000000000000063
:0a2657000000000000000000000079
:20266100000000000000000000000000000000000000000000000000000000000000000059
:0926810000000000000000000050
:20268a00000000000000000000000000000000000000000000000000000000000000000030
:0a26aa000000000000000000000026
:2026b400000000000000000000000000000000000000000000000000000000000000000006
:0926d400000000000000000000fd
:2026dd000000000000000000000000000000000000000000000000000000000000000000dd
:0a26fd0000000000000000000000d3
:202707000000080000000000000000000000000000000000000000000000000000000000aa
:09272700000000000000000000a9
:20273000000000000000000000000000000000000000000000000000000000000000000089
:0a275000000000000000000000007f
:20275a0000000000000000000000000000000000000000000000000000000000000000005f
:09277a0000000000000000000056
:20278300000000000000000000000000000000000000000000000000000000000000000036
:0a27a300000000000000000000002c
:2027ad0000000000000000000000000000000000000000000000000000000000000000000c
:0927cd0000000000000000000003
:2027d6000000000000000000000000000000000000000000000000000000000000000000e3
:0a27f60000000000000000000000d9
:202800000000000000000000000000000000000000000000000000000000000000000000b8
:09282000000000000000000000af
:2028290000000000000000000000000000000000000000000000000000000000000000008f
:0a2849000000000000000000000085
:20285300000200000000000000000000000000000000000000000000000000000000000063
:092873000000000000000000005c
:20287c0000000000000000000000000000000000000000000000000000000000000000003c
:0a289c000000000000000000000032
:2028a600000000000000000000000000000000000000000000000000000000000000000012
:0928c60000000000000000000009
:2028cf000000200000000000000000000000000000000000000000000000000000000000c9
:0a28ef0000000000000000000000df
:2028f9000000000000000000000000000000000000000000000000000000000000000000bf
:09291900000000000000000000b5
:20292200000000000000000000000000000000000000000000000000000000000000000095
:0a294200000000000000000000008b
:20294c0000000000000000000000000000000000000000000000000000000000000000006b
:09296c0000000000000000000062
:20297500000000000000000000000000000000000000000000000000000000000000000042
:0a2995000000000000000000000038
:20299f00000000000000000000000000000000000400000000000000000000000000000014
:0929bf000000000000000000000f
:2029c8000000000000000000000000000000000000000000000000000000000000000000ef
:0a29e80000000000000000000000e5
:2029f200000000000000000000000042000f02000000000000000000000000000000000072
:092a1200000000000000000000bb
:202a1b000000000000000000000000240008f000000000000000000000000000000000007f
:0a2a3b000000000000000000000091
:202a45000000000000000000000002400280000000000000000000000000000000000000ad
:092a650000000000000000000068
:202a6e000000000000000000000000266060008000000000000000000000000000000000e2
:0a2a8e00000000000000000000003e
:202a98000000000000000000000000001cba500000000000000000000000000000000000f8
:092ab80000000000000000000015
:202ac10000000000000000000000000001615a8000000000000000000000000000000000b9
:0a2ae10000000004000000000000e7
:202aeb000002000000000000000000040190f0000000000000000000000000000000000044
:092b0b00000000000000000000c1
:202b140000000000000000000000000021ed0f800000000000000000000000000000000004
:0a2b34000000000000000000000097
:202b3e000000000000000000000001c7c6aa500000000000000000000000000000000000ef
:092b5e000000000000000000006e
:202b670000002000000000000000000673c15a80000000000000000000000000000000001a
:0a2b87000000000000000000000044
:202b9100000000000000000000000042368a500000000000000000000000000008000000ca
:092bb1000000000000000000001b
:202bba0000000000000000000000003c3d415a800000000000000000000000000000000067
:0a2bda0000000000000000000000f1
:202be4000000000000000000000001c380f0f000000000000000000000000000001000009d
:092c0400000000000000000000c7
:202c0d0000000000000000000000003c79cb0f800000000000000000000000000010000088
:0a2c2d00000000000000000000009d
:202c370000000000000003fc0000014034ea5040000000000000000000000000000000008f
:092c570000000000000000000074
:202c6000000000000000003fc000002003415a800000000000000000000000000000000017
:0a2c8000000000000000000000004a
:202c8a000000200000000000000000423eda500000000000000000000000000002800000de
:092caa0000000000000000000021
:202cb30000000300000000000000002021c15a800000000000000000000000000000000022
:0a2cd30000000000000000000000f7
:202cdd0000000000000000000000024242f0f0000000000000000000000000000000000071
:092cfd00000000000000000000ce
:202d0600000000000000000000000026256d0f800000000000000000000000000000000066
:0a2d260000000000000000000000a3
:202d30000000000000000000000000401c8a5000000000000000000000000000000000004d
:092d50000000000000000000007a
:202d590000000000000000000000000061605a8000000000000000000000000000000000bf
:0a2d79000000000000000000000050
:202d83000002000000000000000000200180f000000000000000000000000000000000009d
:092da30000000000000000000027
:202dac0000000000000000000000000601f80f800000000000000000000000000000000079
:0a2dcc0000000000000000000000fd
:202dd600000000000000000000000006069a500000000000000000000000000000000000e7
:092df600000000000000000000d4
:202dff0000002000000000000000000676605a80000000000000000000000000013a0000a3
:0a2e1f0000000000000000000000a9
:202e2900000000001000000000000042368a50000000000000000000000000000000000027
:092e490000000000000000000080
:202e520000000000080000000000003c3d415a8000000000000000000000000000000000c4
:0a2e72000000000000000000000056
:202e7c000000200000000000000001c380f0f00000000000000000000000000000000000f2
:092e9c000000000000000000002d
:202ea50000000080000000000000003c3dcb0f8000000000000000000000000000100000aa
:0a2ec5000000000000000000000003
:202ecf000000000000000154100003e034ca50000400000000000000000000000000000049
:092eef00000000000000000000da
:202ef80000000000000052155000003e63415a800000000000000000000000000000000047
:0a2f180000000000000000000000af
:022f22000000ad
:022f2400110298
:022f26000101a7
:202f2800000000000000000000000000000000000000000000000000000000400000000049
:092f480000000000000000000080
:202f5100000000000000000000000000000000000000000000000000000000000000000060
:0a2f71000000000000000000000056
:202f7b000000000000000000000000000000000000000000000000000000008000000000b6
:092f9b000002000000000000002b
:202fa40000000000000000000000000000000000000000000000000000000000000000000d
:0a2fc4000000000000000000000003
:202fce00000000000000000000000000000000000000000000000020000000400000000083
:092fee00000000000000000000da
:202ff7000000000000000000000000000000000000000000000000030000000000000000b7
:0a30170000000000000000000000af
:203021000000000000080000000000002000000000080000000000000000000000000080df
:0930410000000000000200000084
:20304a00000000000000000000000000000000000000000000000000000000000000000264
:0a306a00000000000000000000005c
:2030740000000000000800000000000020000000000800000000000030700000000000006c
:0930940000000000000200000031
:20309d0000000000000000000000000000000000000000000000000000040000000000000f
:0a30bd000000000000000000000009
:2030c7000000000000000000000000000000000000000000000000000000000000000000e9
:0930e700000000000000000000e0
:2030f0000000000000000000000000000000000000000000000000000000000000000000c0
:0a31100000000000000000000000b5
:20311a00000000000000000000000000000000000000000000000000000000000000000095
:09313a000000000000000000008c
:20314300000000000000000000000000000000000000000000000000002000080000000044
:0a3163000000000000000000000062
:20316d000000000000000000000000000000000000000000000000002000000000000080a2
:09318d0000000000000000000039
:20319600000000000000000000000000000000000000000000000000000000000000000019
:0a31b600000000000000000000000f
:2031c0000000000000000000000000000000000000000000000000000000000000000000ef
:0931e000000000000000000000e6
:2031e9000000000000000000000000000000000000000000080000000000000000000000be
:0a32090000000000000000000000bb
:2032130000000000000000000000000000000000000000000000000000000000000000009b
:0932330000000000000000000092
:20323c00000000000000000000000000000000000000000000000000000000000000000072
:0a325c000000000000000000000068
:20326600000000000000000000000000000000000000000000000000000000000000000048
:093286000000000000000000003f
:20328f0000000000000000000000000000000000000000000000000000000000000000001f
:0a32af000000000000000000000015
:2032b9000002000000000000000000000000000000000000000000000000000000000000f3
:0932d900000000000000000000ec
:2032e2000000000000000000000000000000000000000000000000000000000000000000cc
:0a33020000000000000000000000c1
:20330c000000000000000000000000000000000000000000000000000000000000000000a1
:09332c0000000000000000000098
:20333500000020000000000000000000000000000000000000000000000000000000000058
:0a335500000000000000000000006e
:20335f0000000000000000000000000000000000000000000000000000000000000000004e
:09337f0000000000000000000045
:20338800000000000000000000000000000000000000000000000000000000000000000025
:0a33a800000000000000000000001b
:2033b2000000000000000000000000000000000000000000000000000000000000000000fb
:0933d200000000000000000000f2
:2033db000000000000000000000000000000000000000000000000000000000000000000d2
:0a33fb0000000000000000000000c8
:203405000000000000000000000000000000000000000000000000000000000000000000a7
:093425000000000000000000009e
:20342e0000000000000000000000000000000000000000000000000000000000000000007e
:0a344e000000000000000000000074
:203458000000000000000000000000000000000000000000000000000000a00000000000b4
:093478000000000000000000004b
:2034810000000000000000000000000000000000000000000000000000000000000000002b
:0a34a1000000000000000000000021
:2034ab00000000000000000000000000000000000000000000000000000000000000000001
:0934cb00000000000000000000f8
:2034d4000000000000000000000000000000000000000000000000000000000000000000d8
:0a34f40000000000000000000000ce
:2034fe000000000000000000000000000000000000000000000000000000000000000000ae
:09351e00000000000000000000a4
:20352700000000000000000000000000000000000000000000000000000000000000000084
:0a354700000000000000000000007a
:20355100000200000000000000000000000000000000000000000000000000000000000058
:0935710000000000000000000051
:20357a00000000000000000000000000000000000000000000000000000000000000000031
:0a359a000000000000000000000027
:2035a400000000000000000000000000000000000000000000000000000000000000000007
:0935c400000000000000000000fe
:2035cd000000200000000000000000000000000000000000000000000000000000000000be
:0a35ed0000000000000000000000d4
:2035f7000000000000000000000000000000000000000000000000000000000000000000b4
:09361700000000000000000000aa
:2036200000000000000000000000000000000000000000000000000000000000000000008a
:0a3640000000000000000000000080
:20364a00000000000000000000000000000000000000000000000000000000000000000060
:09366a0000000000000000000057
:20367300000000000000000000000000000000000000000000000000000000000000000037
:0a369300000000000000000000002d
:20369d0000000000000000000000000000000000000000000000000000000000000000000d
:0936bd0000000000000000000004
:2036c6000000000000000000000000000000000000000000000000000000000000000000e4
:0a36e60000000000000000000000da
:2036f0000000000000000000000000000000000000000000000000000000000000000000ba
:09371000000000000000000000b0
:20371900000000000000000000000000000000000000000008000000000000000000000088
:0a3739000000000000000000000086
:20374300000000000000000000000000000000000000000000000000000000000000000066
:093763000000000000000000005d
:20376c0000000000000000000000000000000000000000000000000000000000000000003d
:0a378c000000000000000000000033
:20379600000000000000000000000000000000000000000000000000000000000000000013
:0937b6000000000000000000000a
:2037bf000000000000000000000000000000000000000000000000000000000000000000ea
:0a37df0000000000000000000000e0
:2037e9000002000000000000000000000000000000000000000000000000000000000000be
:0938090000200000000000000096
:20381200000000000000000000000000000000000000000000000000000000000000000096
:0a383200000000000000000000008c
:20383c0000000000000000000000000000000000000000000000000000000000000000006c
:09385c0000000000000000000063
:20386500000020000000000000000000000000000000000000000000000000000000000023
:0a3885000000000000000000000039
:20388f00000000000000000000000000000000000000000000000000000000000000000019
:0938af0000000000000000000010
:2038b8000000000000000000000000000000000000000000000000000000000000000000f0
:0a38d80000000000000000000000e6
:2038e2000000000000000000000000000000000000000000000000000000000000000000c6
:09390200000000000000000000bc
:20390b0000000000000000000000000000000000000000000000000000000000000000009c
:0a392b000000000000000000000092
:20393500000000000000000000000000000000000000000000000000000000000000000072
:0939550000000000000000000069
:20395e00000000000000000000000000000000000000000000000000000000000000000049
:0a397e00000000000000000000003f
:2039880000000000000000000000000000000000000000000000000000000000000000001f
:0939a80000000000000000000016
:2039b1000000000000000000000000000000000000000000000000000000000000000000f6
:0a39d1000000000000000b000010d1
:2039db000000000000000000000000000000000000000000000000000000000000000000cc
:0939fb00000000000000000001c2
:203a04000000000000000000000000000000000000000000000000000000000000000000a2
:0a3a24000000000000000000000494
:203a2e00000000000000000000000000000000000000000000000000000000000000000078
:093a4e00000000083ce00000004b
:203a57008000000000000000000000000000000000000000000000000000000000000000cf
:0a3a77000000000003c20000000878
:203a81000002000000000000000000000000000000000000000000000000400000000000e3
:093aa1000000000000000000001c
:203aaa000000000000000000000000000000000000000000000000000000000000000000fc
:0a3aca0000000000000000000000f2
:203ad4000000000000000000000000000000000000000000000000000000000000000000d2
:093af400000000000000000000c9
:203afd00000020000000000000000000000000000000000000000000000000000000000089
:0a3b1d00000000000000000000009e
:203b270000000000000000000000000000000000000000000000000000000000000000007e
:093b47000000000000001800005d
:203b5000000000000000000000000000000000000000000000000000000000000000000055
:0a3b7000000000000000000000004b
:203b7a0000000000000000000000000000000000000000000000000000000000000000002b
:093b9a0000000000000000000022
:203ba300000000000000000000000000000000000000000000000000000000000000000002
:0a3bc30000000000000000000000f8
:203bcd000000000000000000000000000000000000000000000000000000000000000000d8
:093bed00000000083de000e000ca
:203bf6000000000000000000000000000000000000000000000000000000000000000000af
:0a3c16000000000003c000100000d1
:203c2000000000000000000000000000000000000000000000000000000000000000000084
:093c40000000000000000000007b
:203c4900000000000000000000000000000000000000000008000000000000000000000053
:0a3c69000000000000000000000051
:203c7300000000000000000000000000000000000000000000000000000000000000000031
:093c930000000000000000000028
:203c9c00000000000000000000000000000000000000000000000000000000000000000008
:0a3cbc0000000000000000000000fe
:203cc6000000000000000000000000000000000000000000000000000000000000000000de
:093ce600000000000000000000d5
:203cef000000000000000000000000000000000000000000000000000000000000000000b5
:0a3d0f0000000000000000000000aa
:203d1900000200000000000000000000000000000000000000000000000000000000000088
:093d390000000000000000000081
:203d4200000000000000000000000000000000000000000000000000000000000000000061
:0a3d62000000000000000000000057
:203d6c00000000000000000000000000000000000000000000000000000000000000000037
:093d8c000000000000000000002e
:203d95000000200000000000000000000000000000000000000000000000000000000000ee
:0a3db5000000000000000000000004
:203dbf000000000000000000000000000000000000000000000000000000000000000000e4
:093ddf00000000000000000000db
:203de8000000000000000000000000000000000000000000000000000000000000000000bb
:0a3e080000000000000000000000b0
:203e1200000000000000000000000000000000000000000000000000000000000000000090
:093e320000000000000000000087
:203e3b00000000000000000000000000000000000000000000000000000000000000000067
:0a3e5b00000000000000000000005d
:203e650000000000000000000000000000000000000000000000000000000000000000003d
:093e85000000000000000000082c
:203e8e00000000000000000000000000000000000000000000000000000000000000000014
:0a3eae00000000000000000000000a
:203eb8000000000000000000000000000000000000000000000000000000000000000000ea
:093ed800000000000000000000e1
:203ee1000000000000000000000000000000000000000000000000000000000000000000c1
:0a3f010000000000000000000000b6
:203f0b00000000000000000000000000000000000000000000000000000000000000000096
:093f2b000000000000000000008d
:203f340000000000000000000000000000000000000000000000000000000000000000006d
:0a3f54000000000000000000000063
:203f5e00000000000000000000000000000000000000000000000000000000000000000043
:093f7e000000000000000000003a
:203f870000000000000000000000000000000000000000000000000000000000000000001a
:0a3fa7000000000000000000000010
:203fb1000002000000000000000000000000000000000000000000000000000000000000ee
:093fd100000000000000000000e7
:203fda000000000000000000000000000000000000000000000000000000000000000000c7
:0a3ffa0000000000000000000000bd
:2040040000000000000000000000000000000000000000000000000000000100000000009b
:0940240000000000000000000093
:20402d0000002000000000000000000000000000000000000000000000000008000000004b
:0a404d000000000000000000000069
:20405700000000000000000000000000000000000000000000000000000000000000000049
:0940770000000000000000000040
:20408000000000000000000000000000000000000000000000000000000000000000000020
:0a40a0000000000000000000000016
:2040aa000000000000000000000000000000000000000000000000000000000000000000f6
:0940ca00000000000000000000ed
:2040d3000000000000000000000000000000000000000000000000000000000000000000cd
:0a40f30000000000000000000000c3
:2040fd000000000000000000000000000000000000000000000000000000000000000000a3
:09411d0000000000000000000099
:20412600000000000000000000000000000000000000000000000000000000000000000079
:0a414600000000000000000000006f
:2041500000000000000000000000000000000000000000000000000000000000000000004f
:0941700000000000000000000046
:2041790000000000000000000000000000000000000000000800000000000000000000001e
:0a419900000000000000000000001c
:2041a3000000000000000000000000000000000000000000000000000000000000000000fc
:0941c300000000000000000000f3
:2041cc000000000000000000000000000000000000000000000000000000000000000000d3
:0a41ec0000000000000000000000c9
:2041f6000000000000000000000000000000000000000000000000000000000000000000a9
:094216000000000000000000009f
:20421f0000000000000000000000000000000000000000000000000000000000000000007f
:0a423f000000000000000000000075
:20424900000200000000000000000000000000000000000000000000000000000000000053
:094269000000000000000000004c
:2042720000000000000000000000000000000000000000000000000000000000000000002c
:0a4292000000000000000000000022
:20429c00000000000000000000000000000000000000000000000000000000000000000002
:0942bc00000000000000000000f9
:2042c5000000200000000000000000000000000000000000000000000000000000000000b9
:0a42e50000000000000000000000cf
:2042ef000000000000000000000000000000000000000000000000000000000000000000af
:09430f00000000000000000000a5
:20431800000000000000000000000000000000000000000000000000000000000000000085
:0a433800000000000000000000007b
:2043420000000000000000000000000000000000000000000000000000000000000000005b
:0943620000000000000000000052
:20436b00000000000000000000000000000000000000000000000000000000000000000032
:0a438b000000000000000000000028
:20439500000000000000000000000000000000000000000000000000000000000000000008
:0943b500000000000000000000ff
:2043be000000000000000000000000000000000000000000000000000000000000000000df
:0a43de0000000000000000000000d5
:2043e8000000000000000000000000000000000000000000000000000000000000000000b5
:09440800000000000000000000ab
:2044110000000000000000000000000000000000000000000000000000000000000000008b
:0a4431000000000000000000000081
:20443b00000000000000000000000000000000000000000000000000000000000000000061
:09445b0000000000000000000058
:20446400000000000000000000000000000000000000000000000000000000000000000038
:0a448400000000000000000000002e
:20448e0000000000000000000000000000000000000000000000000000000000000000000e
:0944ae0000000000000000000005
:2044b7000000000000000000000000000000000000000000000000000000000000000000e5
:0a44d70000000000000000000000db
:2044e1000002000000000000000000000000000000000000000000000000000000000000b9
:09450100000000000000000000b1
:20450a00000000000000000000000000000000000000000000000000000000000000000091
:0a452a000000000000000000000087
:20453400000000000000000000000000000000000000000000000000000000000000000067
:094554000000000000000000005e
:20455d0000002000000000000000000000000000000000000000000000000000000000001e
:0a457d000000000000000000000034
:20458700000000000000000000000000000000000000000000000000000000000000000014
:0945a7000000000000000000000b
:2045b0000000000000000000000000000000000000000000000000000000000000000000eb
:0a45d00000000000000000000000e1
:2045da000000000000000000000000000000000000000000000000000000000000000000c1
:0945fa00000000000000000000b8
:20460300000000000000000000000000000000000000000000000000000000000000000097
:0a462300000000000000000000008d
:20462d0000000000000000000000000000000000000000000000000000000000000000006d
:09464d0000000000000000000064
:20465600000000000000000000000000000000000000000000000000000000000000000044
:0a467600000000000000000000003a
:02468000000038
:02468200110322
:02468400010132
:20468600000000000000000000000000000000000000000000000000000000000000000014
:0946a6000000000000000000000b
:2046af000000000000000000000000000000000000000000000000000000000000000000eb
:0a46cf0000000000000000000000e1
:2046d9000000000000000000000000000000000000000000000000000000000000000000c1
:0946f900000000000000000000b8
:20470200000000000000000000000000000000000000000000000000000000000000000097
:0a472200000000000000000000008d
:20472c0000000000000000000000000000000000000000000000000000000000000000006d
:09474c0000000000000000000064
:20475500000000000000000000000000000000000000000000000000000000000000000044
:0a477500000000000000000000003a
:20477f0000000000000800000000000020000000000800000000000020000000000000804a
:09479f000000000000020000000f
:2047a8000000000000000000000000000000000000000000000000000000000000000000f1
:0a47c80000000000000000000000e7
:2047d2000000000000080000000000002000000000080000000000002000000000000080f7
:0947f200000000000002000000bc
:2047fb0000000000000000000000000000000000000000000000000000000000000000009e
:0a481b000000000000000000000093
:20482500000000000000000000000000000000000000000000000000000000000000000073
:094845000000000000000000006a
:20484e0000000000000000000000000000000000000000000000000000000000000000004a
:0a486e000000000000000000000040
:20487800000000000000000000000000000000000000000000000000000000000000000020
:0948980000000000000000000017
:2048a1000000000000000000000000000000000000000000000000000000000000000000f7
:0a48c10000000000000000000000ed
:2048cb000000000000000000000000000000000000000000000000000000000000000000cd
:0948eb00000000000000000000c4
:2048f4000000000000000000000000000000000000000000000000000000000000000000a4
:0a4914000000000000000000000099
:20491e00000000000000000000000000000000000000000000000000000000000000000079
:09493e0000000000000000000070
:20494700000000000000000000000000000000000000000000000000000000000000000050
:0a4967000000000000000000000046
:20497100000000000000000000000000000000000000000000000000000000000000000026
:094991000000000000000000001d
:20499a000000000000000000000000000000000000000000000000000000000000000000fd
:0a49ba0000000000000000000000f3
:2049c4000000000000000000000000000000000000000000000000000000000000000000d3
:0949e400000000000000000000ca
:2049ed000000000000000000000000000000000000000000000000000000000000000000aa
:0a4a0d00000000000000000000009f
:204a170000020000000000000000000000000000000000000000000000000000000000007d
:094a370000000000000000000076
:204a4000000000000000000000000000000000000000000000000000000000000000000056
:0a4a6000000000000000000000004c
:204a6a0000000000000000000000000000000000000000000000000000000000000000002c
:094a8a0000000000000000000023
:204a93000000200000000000000000000000000000000000000000000000000000000000e3
:0a4ab30000000000000000000000f9
:204abd000000000000000000000000000000000000000000000000000000000000000000d9
:094add00000000000000000000d0
:204ae6000000000000000000000000000000000000000000000000000000000000000000b0
:0a4b060000000000000000000000a5
:204b1000000000000000000000000000000000000000000000000000000000000000000085
:094b30000000000000000000007c
:204b390000000000000000000000000000000000000000000000000000000000000000005c
:0a4b59000000000000000000000052
:204b6300000000000000000000000000000000000000000000000000000000000000000032
:094b830000000000000000000029
:204b8c00000000000000000000000000000000000000000000000000000000000000000009
:0a4bac0000000000000000000000ff
:204bb6000000000000000000000000000000000000000000000000000000000000000000df
:094bd600000000000000000000d6
:204bdf000000000000000000000000000000000000000000000000000000000000000000b6
:0a4bff0000000000000000000000ac
:204c090000000000000000000000000000000000000000000000000000000000000000008b
:094c290000000000000000000082
:204c3200000000000000000000000000000000000000000000000000000000000000000062
:0a4c52000000000000000000000058
:204c5c00000000000000000000000000000000000000000000000000000000000000000038
:094c7c000000000000000000002f
:204c850000000000000000000000000000000000000000000000000000000000000000000f
:0a4ca5000000000000000000000005
:204caf000002000000000000000000000000000000000000000000000000000000000000e3
:094ccf00000000000000000000dc
:204cd8000000000000000000000000000000000000000000000000000000000000000000bc
:0a4cf80000000000000000000000b2
:204d0200000000000000000000000000000000000000000000000000000000000000000091
:094d220000000000000000000088
:204d2b00000020000000000000000000000000000000000000000000000000000000000048
:0a4d4b00000000000000000000005e
:204d550000000000000000000000000000000000000000000000000000000000000000003e
:094d750000000000000000000035
:204d7e00000000000000000000000000000000000000000000000000000000000000000015
:0a4d9e00000000000000000000000b
:204da8000000000000000000000000000000000000000000000000000000000000000000eb
:094dc800000000000000000000e2
:204dd1000000000000000000000000000000000000000000000000000000000000000000c2
:0a4df10000000000000000000000b8
:204dfb00000000000000000000000000000000000000000080000000000000000000000018
:094e1b000000000000000000008e
:204e240000000000000000000000000000000000000000000000000000000000000000006e
:0a4e44000000000000000000000064
:204e4e00000000000000000000000000000000000000000000000000000000000000000044
:094e6e000000000000000000003b
:204e770000000000000000000000000000000000000000000000000000000000000000001b
:0a4e97000000000000000000000011
:204ea1000000000000000000000000000000000000000000000000000000000000000000f1
:094ec100000000000000000000e8
:204eca000000000000000000000000000000000000000000000000000000000000000000c8
:0a4eea0000000000000000000000be
:204ef40000000000000000000000000000000000000000000000000000000000000000009e
:094f140000000000000000000094
:204f1d00000000000000000000000000000000000000000000000000000000000000000074
:0a4f3d00000000000000000000006a
:204f4700000200000000000000000000000000000000000000000000000000000000000048
:094f670000000000000000000041
:204f7000000000000000000000000000000000000000000000000000000000000000000021
:0a4f90000000000000000000000017
:204f9a000000000000000000000000000000000000000000000000000000000000000000f7
:094fba00000000000000000000ee
:204fc3000000200000000000000000000000000000000000000000000000000000000000ae
:0a4fe30000000000000000000000c4
:204fed000000000000000000000000000000000000000000000000000000000000000000a4
:09500d000000000000000000009a
:2050160000000000000000000000000000000000000000000000000000000000000000007a
:0a5036000000000000000000000070
:20504000000000000000000000000000000000000000000000000000000000000000000050
:0950600000000000000000000047
:20506900000000000000000000000000000000000000000000000000000000000000000027
:0a508900000000000000000000001d
:205093000000000000000000000000000000000000000000000000000000000000000000fd
:0950b300000000000000000000f4
:2050bc000000000000000000000000000000000000000000000000000000000000000000d4
:0a50dc0000000000000000000000ca
:2050e6000000000000000000000000000000000000000000000000000000000000000000aa
:09510600000000000000000000a0
:20510f00000000000000000000000000000000000000000000000000000000000000000080
:0a512f000000000000000000000076
:20513900000000000000000000000000000000000000000000000000000000000000000056
:095159000000000000000000004d
:2051620000000000000000000000000000000000000000000000000000000000000000002d
:0a5182000000000000000000000023
:20518c00000000000000000000000000000000000000000000000000000000000000000003
:0951ac00000000000000000000fa
:2051b5000000000000000000000000000000000000000000000000000000000000000000da
:0a51d50000000000000000000000d0
:2051df000002000000000000000000000000000000000000000000000000000000000000ae
:0951ff00000000000000000000a7
:20520800000000000000000000000000000000000000000000000000000000000000000086
:0a522800000000000000000000007c
:2052320000000000000000000000000000000000000000000000000000000000000000005c
:0952520000000000000000000053
:20525b00000020000000000000000000000000000000000000000000000000000000000013
:0a527b000000000000000000000029
:20528500000000000000000000000000000000000000000000000000000000000000000009
:0952a50000000000000000000000
:2052ae000000000000000000000000000000000000000000000000000000000000000000e0
:0a52ce0000000000000000000000d6
:2052d8000000000000000000000000000000000000000000000000000000000000000000b6
:0952f800000000000000000000ad
:2053010000000000000000000000000000000000000000000000000000000000000000008c
:0a5321000000000000000000000082
:20532b000000000000000000000000000000000000000000800000000000000000000000e2
:09534b0000000000000000000059
:20535400000000000000000000000000000000000000000000000000000000000000000039
:0a537400000000000000000000002f
:20537e0000000000000000000000000000000000000000000000000000000000000000000f
:20570f00000200000000000000000000000000000000000000000000000000000000000078
:09572f0000000000000000000071
:20573800000000000000000000000000000000000000000000000000000000000000000051
:0a5758000000000000000000000047
:20576200000000000000000000000000000000000000000000000000000000000000000027
:095782000000000000000000001e
:20578b000000200000000000000000000000000000000000000000000000000000000000de
:0a57ab0000000000000000000000f4
:2057b5000000000000000000000000000000000000000000000000000000000000000000d4
:0957d500000000000000000000cb
:2057de000000000000000000000000000000000000000000000000000000000000000000ab
:0a57fe0000000000000000000000a1
:20580800000000000000000000000000000000000000000000000000000000000000000080
:0958280000000000000000000077
:20583100000000000000000000000000000000000000000000000000000000000000000057
:0a585100000000000000000000004d
:20585b000000000000000000000000000000000000000000800000000000000000000000ad
:09587b0000000000000000000024
:20588400000000000000000000000000000000000000000000000000000000000000000004
:0a58a40000000000000000000000fa
:2058ae000000000000000000000000000000000000000000000000000000000000000000da
:0958ce00000000000000000000d1
:2058d7000000000000000000000000000000000000000000000000000000000000000000b1
:0a58f70000000000000000000000a7
:20590100000000000000000000000000000000000000000000000000000000000000000086
:095921000000000000000000007d
:20592a0000000000000000000000000000000000000000000000000000000000000000005d
:0a594a000000000000000000000053
:20595400000000000000000000000000000000000000000000000000000000000000000033
:095974000000000000000000002a
:20597d0000000000000000000000000000000000000000000000000000000000000000000a
:0a599d000000000000000000000000
:2059a7000002000000000000000000000000000000000000000000000000000000000000de
:0959c700000000000000000000d7
:2059d0000000000000000000000000000000000000000000000000000000000000000000b7
:0a59f00000000000000000000000ad
:2059fa0000000000000000000000000000000000000000000000000000000000000000008d
:095a1a0000000000000000000083
:205a2300000020000000000000000000000000000000000000000000000000000000000043
:0a5a43000000000000000000000059
:205a4d000000000000000000000000000000000000000000000000000000008000000000b9
:095a6d0000000000000000000030
:205a760000000000000000000000000000000000000000000000000000000004000000000c
:0a5a96000000000000000000000006
:205aa0000000000000000000000000000000000000000000000000000000000000000000e6
:095ac000000000000000000000dd
:205ac9000000000000000000000000000000000000000000000000000000000000000000bd
:0a5ae90000000000000000000000b3
:205af300000000000000000000000000000000000000000000000000000000000000000093
:095b130000000000000000000089
:205b1c00000000000000000000000000000000000000000000000000000000000000000069
:0a5b3c00000000000000000000005f
:205b460000000000000000000000000000000000000000000000000000000000000000003f
:095b660000000000000000000036
:205b6f00000000000000000000000000000000000000000000000000000000000000000016
:0a5b8f00000000000000000000000c
:205b99000000000000000000000000000000000000000000000000000000000000000000ec
:095bb900000000000000000000e3
:205bc2000000000000000000000000000000000000000000000000000000000000000000c3
:0a5be20000000000000000000000b9
:205bec00000000000000000000000000000000000000000000000000000000000000000099
:095c0c000000000000000000008f
:205c150000000000000000000000000000000000000000000000000000000000000000006f
:0a5c35000000000000000000000065
:205c3f00000200000000000000000000000000000000000000000000000000000000000043
:095c5f000000000000000000003c
:205c680000000000000000000000000000000000000000000000000000000000000000001c
:0a5c88000000000000000000000012
:205c92000000000000000000000000000000000000000000000000000000000000000000f2
:095cb200000000000000000000e9
:205cbb000000200000000000000000000000000000000000000000000000000000000000a9
:0a5cdb0000000000000000000000bf
:205ce50000000000000000000000000000000000000000000000000000000000000000009f
:095d050000000000000000000095
:205d0e00000000000000000000000000000000000000000000000000000000000000000075
:0a5d2e00000000000000000000006b
:205d380000000000000000000000000000000000000000000000000000000000000000004b
:095d580000000000000000000042
:205d6100000000000000000000000000000000000000000000000000000000000000000022
:0a5d81000000000000000000000018
:205d8b00000000000000000000000000000000000000000080000000000000000000000078
:095dab00000000000000000000ef
:205db4000000000000000000000000000000000000000000000000000000000000000000cf
:0a5dd40000000000000000000000c5
:025dde000000c3
:035de00062003f1f
:035de300720080cb
:025de6001100aa
:035de80082000036
:025deb000103b2
:085ded000000000000000000ae
:085df5000000000000000000a6
:085dfd0000000000000000009e
:085e0500000000000000000095
:0261ed000000b0
:0361ef00820080ab
:0261f2000103a7
:0861f4000000000000000000a3
:0861fc0000000000000000009b
:08620400000000000000000092
:08620c0000000000000000008a
:0265f4000000a5
:0265f600110191
:0365f8008200001e
:0265fb0001039a
:0865fd00000000000000000096
:0866050000000000000000008d
:08660d00000000000000000085
:0866150000000000000000007d
:0269fd00000098
:0369ff0082008093
:026a020001038e
:086a040000000000000000008a
:086a0c00000000000000000082
:086a140000000000000000007a
:086a1c00000000000000000072
:026e040000008c
:026e0600110277
:036e080082000005
:026e0b00010381
:086e0d0000000000000000007d
:086e1500000000000000000075
:086e1d0000000000000000006d
:086e2500000000000000000065
:02720d0000007f
:03720f008200807a
:02721200010376
:08721400000000000000000072
:08721c0000000000000000006a
:08722400000000000000000062
:08722c0000000000000000005a
:02761400000074
:0276160011035e
:03761800820000ed
:02761b00010369
:08761d00000000000000000065
:0876250000000000000000005d
:08762d00000000000000000055
:0876350000000000000000004d
:027a1d00000067
:037a1f0082008062
:027a220001035e
:087a240000000000000000005a
:087a2c00000000000000000052
:087a340000000000000000004a
:087a3c00000000000000000042
:027e240000005c
:017e26002239
:027e2700a43a7b
:027e2900010650
:00000001FF
